:030000000227973D
:0C279700787FE4F6D8FD7581200227DE73
:0F2C5800696E697400756172742073656E640033
:101F1F0041004E084100D500410090004100B30040
:101F2F0041008F0041004D004100DB00410044079C
:0E1F3F0044000000000000440091000000007B
:10282300E4F593F594F592F591F5B1F5B27596FF4C
:10283300F59575B4FFF5B3F5A0F5C0122121122B60
:10284300777BFF7A2C79589002257410F0E4FDFF12
:1028530012292BC28C538E7F5389F0758ADC758CB9
:102863000BC28DD28C538FFED2A99000D774FFF088
:10287300A3742CF0A3745DF012265D121CCC122CF1
:1028830013122C32122C48E49000D4F09000D6F0AE
:102893009000DAF07F64120000122B77D2BCD2AC26
:0428A300D2AF80FE32
:03000B000222CB03
:1022CB00C0E0C0F0C083C082C0D075D000C000C0D9
:1022DB0001C002C003C004C005C006C0079000D4F3
:1022EB00E004F09000D6E004F09000DAE004F09007
:1022FB0000D4E0C39402400B121699121AD6900028
:10230B00D4E4F09000D6E0C394064054B2CD120E44
:10231B00399001C1E0FCA3E0FDEC120BDBE4FBFA0E
:10232B00F97847120AAFE4FBFA793478431209A61D
:10233B00900000120DFC9001C3E0FCA3E0FDEC1239
:10234B000BDBE4FBFAF97847120AAFE4FBFA7934BA
:10235B0078431209A6900091120DFC9000D6E4F080
:10236B009000DAE0C394284005E4F0122394D007E0
:10237B00D006D005D004D003D002D001D000D0D0ED
:09238B00D082D083D0F0D0E03202
:03006300022B0865
:102B0800C0E0C0F0C083C082C0D075D000C000C093
:102B180001C002C003C004C005C006C00712118C62
:102B2800D007D006D005D004D003D002D001D00001
:0B2B3800D0D0D082D083D0F0D0E032AB
:03002300022A8628
:102A8600C0E0C0F0C083C082C0D075D000C000C016
:102A960001C002C003C004C005C006C007309807C5
:102AA600C298AF991228A7D007D006D005D004D077
:102AB60003D002D001D000D0D0D082D083D0F0D0C5
:022AC600E032FC
:0300930002002E3A
:10002E00C0E0C083C082C0D090008FE004F0E584B1
:10003E0030E0195384FE9000DBE02495F582E43421
:10004E0000F583E585F09000DBE004F0D0D0D0829F
:05005E00D083D0E03268
:101AD60090006FE0FCA3E0FDA3E0FEA3E0FF900012
:101AE600B4E0F8A3E0F9A3E0FAA3E0FB120B4C6024
:101AF60015401390006FE0F8A3E0F9A3E0FAA3E025
:101B0600FB9000B480119000B4E0F8A3E0F9A3E0E4
:101B1600FAA3E0FB90006FE0FCA3E0FDA3E0FEA3C8
:101B2600E0FF1208B1900045120DFC900073E0FC36
:101B3600A3E0FDA3E0FEA3E0FF9000B8E0F8A3E079
:101B4600F9A3E0FAA3E0FB120B4C601540139000DA
:101B560073E0F8A3E0F9A3E0FAA3E0FB9000B880F5
:101B6600119000B8E0F8A3E0F9A3E0FAA3E0FB9037
:101B76000073E0FCA3E0FDA3E0FEA3E0FF1208B1C2
:101B8600900049120DFC900000E0FCA3E0FDA3E0EC
:101B9600FEA3E0FF90022E120DFC9002327403F0B9
:101BA600A37410F0E4FD7F141218D4900091E0FCA9
:101BB600A3E0FDA3E0FEA3E0FF90022E120DFC9031
:101BC60002327403F0A37410F0E4FD7F3C1218D4C3
:101BD6009000B4E0FCA3E0FDA3E0FEA3E0FF9002CA
:101BE6002E120DFC9002327403F0A3740CF07D02E9
:101BF600E4FF1218D49000B8E0FCA3E0FDA3E0FED9
:101C0600A3E0FF90022E120DFC9002327403F0A3A3
:101C1600740CF07D027F321218D49000BCE0FCA355
:101C2600E0FDA3E0FEA3E0FF90022E120DFC900261
:101C3600327403F0A3740CF07D03E4FF1218D49001
:101C460000C0E0FCA3E0FDA3E0FEA3E0FF90022EAF
:101C5600120DFC9002327403F0A3740CF07D037F26
:101C6600321218D490004FE0FCA3E0FDA3E0FEA3DF
:101C7600E0FF90022E120DFC9002327403F0A37462
:101C86000CF07D04E4FF1218D4900053E0FCA3E0AE
:101C9600FDA3E0FEA3E0FF90022E120DFC9002329F
:101CA6007403F0A3740CF07D047F321218D49000F4
:101CB6008FE0FB7A009002307403F0A3740CF07D81
:061CC60005E4FF02244DBD
:102C320075841043844043D12075D3F375D2FC438D
:062C4200D18075AF1022E5
:101F4D004801D900000000000000004801C9000050
:101F5D000000000000004801E90000000000000042
:101F6D00004801C100000000000000004801E10030
:101F7D00000000000000004801B10000000000005A
:101F8D0000004801D100000000000000004801B928
:101F9D0000000000000000004801A9000000000042
:071FAD000000004101A80043
:102C1300E5A2543F4440F5A2759850438E40538E2D
:0F2C2300FE53890F758BF3758DFCC2ABD28E22D9
:1028A7009001A8E0FE04F0749C2EF582E43401F553
:1028B70083EFF090019CE06455600280619001A86D
:1028C700E0C3940B405D90019DE024AD70509001F2
:1028D7009FE0FE90019EE0FDEDFF9001C1EEF0A3A9
:1028E700EFF09001A1E0FE9001A0E0FDEDFF900167
:1028F700C3EEF0A3EFF09001A3E0FE9001A2E0FD8C
:10290700EDFF9001C5EEF0A3EFF09001A5E0FE907A
:1029170001A4E0FDEDFF9001C7EEF0A3EFF0E49016
:0329270001A8F014
:01292A00228A
:1029E900120CE2F59D900001120CFBFFE5BC549F0F
:1029F9004FF5BC900002120CFBB4010543BC80806A
:102A09000353BC7F900003120CFBB40105439720CC
:102A190080035397DF900005120CFBB40104D2AD7B
:102A29008002C2AD900004120CFBB40103D2BD2296
:032A3900C2BD22F9
:0C2C8300EFB4010443BC802253BC7F224C
:10298B00EFD3940740028051E4F5BDF5BEE5BC548E
:10299B00E044084FF5BC00000000E4FBE5BC30E46C
:1029AB003353BCEFE59730E509E5BD5403ADBEFCF1
:1029BB00801DAFBD7C00AD07ED7E007802C333CE2A
:1029CB0033CED8F9FFE5BE5403FDEEFCEF4DFDAF62
:0D29DB0005AE04220BEBB4FAC37E047F00AE
:0129E80022CC
:03002B0002001EB2
:04001E0053BCEF32AE
:100096000000000000000000002F00000000070024
:1000A600070000147F147F1400242A7F2A1200629E
:1000B600640813230036495522500000050300004A
:1000C60000001C224100000041221C000014083ED2
:1000D60008140008083E0808000000A06000000898
:1000E60008080808000060600000002010080402EC
:1000F600003E5149453E0000427F400000426151AA
:100106004946002141454B31001814127F10002743
:1001160045454539003C4A49493000017109050306
:1001260000364949493600064949291E0000363637
:10013600000000005636000000081422410000149A
:100146001414141400004122140800020151090677
:1001560000324959513E007C1211127C007F4949F8
:100166004936003E41414122007F4141221C007F29
:1001760049494941007F09090901003E4149497A37
:10018600007F0808087F0000417F410000204041B1
:100196003F01007F08142241007F40404040007F1D
:1001A600020C027F007F0408107F003E4141413E61
:1001B600007F09090906003E4151215E007F0919A9
:1001C60029460046494949310001017F0101003FA6
:1001D6004040403F001F2040201F003F4038403F26
:1001E600006314081463000708700807006151498A
:1001F600454300007F41410000552A552A5500001D
:1002060041417F000004020102040040404040409A
:10021600000001020400002054545478007F484432
:10022600443800384444442000384444487F003869
:100236005454541800087E0901020018A4A4A47C92
:10024600007F080404780000447D4000004080845C
:100256007D00007F102844000000417F4000007CA4
:1002660004180478007C08040478003844444438B0
:1002760000FC242424180018242418FC007C0804FC
:10028600040800485454542000043F444020003CD5
:100296004040207C001C2040201C003C4030403C5C
:1002A600004428102844001CA0A0A07C00446454EC
:1002B6004C44141414141414000000000000000030
:1002C6000000000000000000000000F80000000030
:1002D600000000333000000000100C06100C060071
:1002E600000000000000000040C07840C0784000D8
:1002F600043F04043F040400007088FC083000003A
:10030600001820FF211E0000F008F000E018000091
:1003160000211C031E211E0000F00888700000004A
:100326001E2123241927211010160E00000000009C
:100336000000000000000000000000E018040200B9
:10034600000000071820400000020418E00000002A
:100356000040201807000000404080F08040400028
:100366000202010F01020200000000F0000000007E
:100376000101011F01010100000000000000000052
:1003860080B07000000000000000000000000000C7
:100396000001010101010101000000000000000050
:1003A60000303000000000000000000080601804EB
:1003B600006018060100000000E010080810E000C8
:1003C600000F102020100F00001010F80000000091
:1003D6000020203F202000000070080808887000D8
:1003E6000030282422213000003008888848300058
:1003F6000018202020110E000000C02010F8000078
:1004060000070424243F240000F808888808080010
:100416000019212020110E0000E010888818000025
:10042600000F112020110E0000380808C8380800F7
:100436000000003F00000000007088080888700077
:10044600001C222121221C0000E010080810E000F8
:100456000000312222110F00000000C0C000000081
:1004660000000030300000000000008000000000A6
:10047600000080600000000000008040201008009E
:100486000001020408102000404040404040400067
:100496000404040404040400000810204080000042
:1004A6000020100804020100007048080808F00047
:1004B6000000003036010000C030C828E810E00017
:1004C6000718272423140B000000C038E0000000A2
:1004D600203C23020227382008F88888887000000C
:1004E600203F202020110E00C030080808083800E0
:1004F600071820202010080008F808080810E00057
:10050600203F202020100F0008F88888E8081000F7
:10051600203F20202320180008F88888E8081000CB
:10052600203F200003000000C03008080838000003
:1005360007182020221E020008F808000008F80804
:10054600203F210101213F20000808F8080800008B
:100556000020203F2020000000000808F8080800BE
:10056600C08080807F00000008F888C02818080036
:10057600203F20012638200008F80800000000006F
:10058600203F20202020300008F8F800F8F8080066
:10059600203F003F003F200008F830C00008F80860
:1005A600203F200007183F00E01008080810E00070
:1005B6000F10202020100F0008F808080808F00087
:1005C600203F210101010000E01008080810E000AA
:1005D6000F18242438504F0008F88888888870003F
:1005E600203F2000030C30200070880808083800DF
:1005F6000038202121221C00180808F808081800D5
:100606000000203F2000000008F808000008F80855
:10061600001F202020201F000878880000C8380806
:10062600000007380E010000F80800F80008F8007E
:10063600033C0700073C0300081868808068180818
:1006460020302C03032C30200838C800C838080096
:100656000000203F2000000010080808C8380800E5
:100666002038262120201800000000FE0202020089
:100676000000007F40404000000C30C00000000039
:10068600000000010638C00000020202FE00000061
:10069600004040407F000000000004020202040007
:1006A6000000000000000000000000000000000044
:1006B600808080808080808000020204000000002C
:1006C6000000000000000000000080808080000024
:1006D6000019242222223F2008F800808000000012
:1006E600003F112020110E000000008080800000D5
:1006F600000E112020201100000000808088F800E4
:10070600000E112020103F20000080808080000015
:10071600001F222222221300008080F08888881879
:100726000020203F20200000000080808080800084
:10073600006B94949493600008F800808080000019
:10074600203F210000203F200080989800000000F4
:100756000020203F20200000000000809898000024
:1007660000C08080807F000008F800008080800044
:10077600203F24022D302000000808F80000000069
:100786000020203F20200000808080808080800024
:10079600203F20003F20003F8080008080800000B6
:1007A600203F210000203F20000080808080000044
:1007B600001F202020201F00808000808000000075
:1007C60080FFA12020110E000000008080808000A4
:1007D600000E112020A0FF80808080008080800095
:1007E60020203F21200001000000808080808000C2
:1007F6000033242424241900008080E08080000037
:100806000000001F20200000808000000080800083
:10081600001F202020103F208080800000808080E4
:1008260000010E3008060100808000800080808074
:100836000F300C030C300F00008080008080800099
:100846000020312E0E3120008080800000808080C4
:1008560080818E7018060100008080808080800074
:100866000021302C2221300000000000807C020292
:1008760000000000003F404000000000FF000000B4
:1008860000000000FF0000000002027C8000000063
:100896000040403F0000000000060101020204047F
:0808A60000000000000000004A
:092C8F00D2B2D2B3C2B3C2B22228
:07000300D2B2C2B3D2B32256
:0B000E0012006D120019AF0412006D0B
:05001900D2B2C2B222C8
:07006600AC07122C8F7F781C
:10006D00C2B2E4FEAD07ED5480B48004D2B3800279
:0F007D00C2B3EF25E0FFD2B2C2B20EEEB408E577
:01008C002251
:0E2C6700120066120019E4FF12000E020003B4
:0E2C75001200661200197F4012000E020003CA
:102BF100122C02E4FDFCFFFE122C027F10E4FDFC0E
:012C0100FED4
:102C0200AB07AA06ED4C6003022C75AF03122C67CA
:012C1200229F
:082B430090023BE0FFA3E0FD5E
:102B4B00A907ED24B0FFE433FEE4FDFC122C02E9EF
:102B5B0054F0C4540F7E004410FFE4FDFC122C0211
:0C2B6B00E9540FFF7E00E4FDFC022C0288
:102B7700E4F9E924B0FFE433FEE4FDFC122BF1E4B1
:102B8700900220F07D017C00E4FFFE122C029002EF
:0F2B970020E004F0E0C3948040EA09E9B408D3D9
:012BA600220C
:0B21FD0090023CEDF090023BEFF0FD83
:10220800E490023FF0F9EB24E0F0EDD3947F400A2C
:10221800E490023BF0A3E02402F090023EE0641058
:10222800706E122B43E4F990023FE075F010A42978
:10223800F582E435F0F583E58224BEF582E5833442
:1022480002F583E493FF7E007D017C00122C0209D5
:10225800E9B408D390023BE0FFA3E004FD122B4B46
:10226800E4F990023FE075F010A429F582E435F016
:10227800F583E58224C6F582E5833402F583E49389
:10228800FF7E007D017C00122C0209E9B408D322EC
:10229800122B43E4F990023FE075F006A42496F56A
:1022A80082E5F03400F583E58229F582E43583F58B
:1022B80083E493FF7E007D017C00122C0209E9B4BF
:0222C80006D33B
:0122CA0022F1
:10292B00900220EFF0A3EDF0A3EBF0A3EAF0A3E904
:01293B00F0AB
:10293C00E4900226F0900222E0FBA3E0FAA3E0F977
:10294C00900226E0F582758300120CFBFB602F9041
:10295C000220E0FFA3E0FD900225E090023EF01281
:10296C0021FD900220E02408F0E0D394784007E4A5
:0E297C00F0A3E02402F0900226E004F080B701
:01298A00222A
:072BA700C3EF9E14FD7F0A3D
:072BAE0090023BEFF0A905C6
:102BB5007F017E00AD0119ED600C90023BE0FD7CCC
:062BC50000120D2880EE55
:012BCB0022E7
:0E244D0090022CEFF0A3EDF0A3EAF0A3EBF069
:10245B00E4900234F0900232F0900230E0FF9002F0
:10246B0032E0FEC39F4003022500122BA790022EE1
:10247B00E0FCA3E0FDCFCDCFCECCCE120D3A7C004D
:10248B007D0A120D3A900233EDF0A3E07036900204
:10249B0030E014FF900232E0FEC39F5027A3E070A0
:1024AB001D900231E0FCC3138EF0A4FF90022CE0D0
:1024BB002FFFA3E0FD90023EECF07B20802B9002DF
:1024CB00347401F0900231E0FEC313FFA3E0FDEF83
:1024DB008DF0A4FF90022CE02FFFA3E0FD900233C0
:1024EB00E02430FB90023EEEF01221FD900232E030
:0524FB0004F00224645E
:0125000022B8
:0818D40090022CEFF0A3EDF0EF
:1018DC00E490023AF0FFFEFDFC90022EE0F8A3E04B
:1018EC00F9A3E0FAA3E0FB120B4C90022CE0FFA34F
:1018FC00E0FD900233E090023E501FF07B2D122150
:10190C00FD90022EE0FCA3E0FDA3E0FEA3E0FF129D
:10191C000BC590022E120DFC8006F07B201221FDCF
:10192C0090022EE0FCA3E0FDA3E0FEA3E0FF120C6E
:10193C0014900234EEF0A3EFF0E4FFFE7D7A7C44C9
:10194C0090022EE0F8A3E0F9A3E0FAA3E0FB120961
:10195C00A6C004C005C006C007900234E0FEA3E098
:10196C00FF7C037DE8120D28AC06AD07E4120BDBFF
:10197C00A804A905AA06AB07D007D006D005D00449
:10198C001208B1120C14900236EEF0A3EFF0E4A39F
:10199C00F0900232E0FF900238E0FEC39F40030259
:1019AC001A3D122BA7900234E0FCA3E0FDCFCDCF63
:1019BC00CECCCE120D3A7C007D0A120D3A90023933
:1019CC00EDF0A3E07039900232E014FF900238E0A1
:1019DC00FEC39F502AA3E07020900233E0FCC31397
:1019EC00FFEE048FF0A4FF90022CE02FFFA3E0FD8C
:1019FC0090023EECF07B20802C90023A7401F09027
:101A0C000233E0FEC313FF900238E0048FF0A4FF12
:101A1C0090022CE02FFFA3E0FD900239E02430FB74
:101A2C0090023EEEF01221FD900238E004F0021913
:101A3C009DE4900238F0900238E0FFC394025066A7
:101A4C00C374029FFD7F0A122BAE900236E0FCA3FA
:101A5C00E0FDCFCDCFCECCCE120D3A7C007D0A125C
:101A6C000D3AAF05900239EFF0FE900233E0FCC363
:101A7C0013FF900232E024028FF0A4FD90022CE0C0
:101A8C002DFD900238E0FBEF8BF0A42DFF90022D82
:101A9C00E0FDEE2430FB90023EECF01221FD9002B2
:101AAC0038E004F08090900233E0FEC313FF900204
:101ABC0032E0048FF0A4FF90022CE02FFFA3E0FD96
:0A1ACC0090023EEEF07B2E0221FD99
:10212100E4FDFC7FAEFE122BF17F40122BFEE4FD9D
:10213100FC7FB0FE122C02E4FDFC7F81FE122C021A
:10214100E4FDFC7FFFFE122C02E4FDFC7FA1FE12E8
:102151002C02E4FDFC7FA6FE122C02E4FDFC7FA80C
:10216100FE122C02E4FDFC7F3FFE122C02E4FDFC7A
:102171007FC8FE122C02E4FDFC7FD3FE122C02E488
:10218100FDFCFFFE122C02E4FDFC7FD5FE122C02A9
:10219100E4FDFC7F80FE122C02E4FDFC7FD8FE12E0
:1021A1002C02E4FDFC7F05FE122C02E4FDFC7FD92C
:1021B100FE122C02E4FDFC7FF1FE122C02E4FDFC78
:1021C1007FDAFE122C02E4FDFC7F12FE122C02E4E7
:1021D100FDFC7FDBFE122C02E4FDFC7F30FE122CA5
:1021E10002E4FDFC7F8DFE122C02E4FDFC7F14FE57
:0C21F100122C02E4FDFC7FAFFE022C0269
:101FB4004102570041024B014102420141024C01DE
:0C1FC4004402513F4CCCCD4202550000BD
:102BCC0090022074FFF0A37420F0A37401F0E4A32E
:102BDC00F0A304F0E4A3F07B017A0279201229E936
:052BEC007F01022C83B3
:10265D00122BCCE4900257F0900257E0FB25E025B9
:10266D00E02404F582E43400F583120E0800000026
:10267D0000AF0312298BAC06AD07E4120BDB7B3DDB
:10268D007A0A79377840120AAF900257E0FB25E0BD
:10269D0025E0246FF582E43400F583120DFCEB2563
:1026AD00E025E0246FF582E43400F583E0FCA3E03F
:1026BD00FDA3E0FEA3E0FFEB25E025E024B4F582C9
:1026CD00E43400F583120DFCEB25E025E02424F520
:1026DD0082E43400F583120E083D4CCCCD900257A8
:0D26ED00E004F0E0C39408500302266522CB
:1026FA00E4900257F0900257E0FFC3940850321258
:10270A00298BAC06AD07E4120BDB7B3D7A0A7937DD
:10271A007840120AAF900257E025E025E0246FF5D1
:10272A0082E43400F583120DFC900257E004F08035
:10273A00C4900073E0FCA3E0FDA3E0FEA3E0FF1257
:10274A000BC5900073120DFC900077E0FCA3E0FD2E
:10275A00A3E0FEA3E0FF120BC5900077120DFC90D8
:10276A000083E0FCA3E0FDA3E0FEA3E0FF120BC59B
:10277A00900083120DFC900087E0FCA3E0FDA3E02B
:0D278A00FEA3E0FF120BC5900087020DFCBE
:101699001226FAE4900257F0900257E0FFC394082B
:1016A90040030218D3EF25E025E0246FF582E434E6
:1016B90000F583C083C082E0FCA3E0FDA3E0FEA3A4
:1016C900E0FF900257E025E025E02404F582E434A8
:1016D90000F583E0F8A3E0F9A3E0FAA3E0FB120820
:1016E900B1D082D083120DFC90024BE0FCE4120BC6
:1016F900E0900257E025E025E024B4F582E43400C7
:10170900F583E0F8A3E0F9A3E0FAA3E0FB1209A648
:10171900900247120DFC90024BE0FCE4120BE090A2
:101729000257E025E025E02424F582E43400F5831E
:10173900E0F8A3E0F9A3E0FAA3E0FB1209A6C004CC
:10174900C005C006C007900242E0FCE4120BE0D0DD
:1017590003D002D001D0001209A6900251E0F8A3EB
:10176900E0F9A3E0FAA3E0FB1208B5900243120DD9
:10177900FC90024CE0FCE4120BE0900257E025E0FB
:1017890025E02424F582E43400F583E0F8A3E0F9A8
:10179900A3E0FAA3E0FB1209A6C004C005C006C075
:1017A9000790024CE0FCE4120BE0D003D002D00118
:1017B900D0001209A6C004C005C006C00790025592
:1017C900E0FCA3E0FDE4120BDBD003D002D001D092
:1017D900001208B5900257E025E025E02424F5829F
:1017E900E43400F583E0F8A3E0F9A3E0FAA3E0FB11
:1017F9001209A690024D120DFC90024CE0FCE41275
:101809000BE0900247E0F8A3E0F9A3E0FAA3E0FBBC
:101819001209A6A804A905AA06AB07900257E02554
:10182900E025E0246FF582E43400F583E0FCA3E0D1
:10183900FDA3E0FEA3E0FF1208B190024DE0F8A37A
:10184900E0F9A3E0FAA3E0FB1209A6900247E0F849
:10185900A3E0F9A3E0FAA3E0FB1208B5900257E070
:1018690025E025E024B4F582E43400F583120DFC6B
:1018790090024CE0FCE4120BE090024DE0F8A3E08A
:10188900F9A3E0FAA3E0FB1209A6A804A905AA0690
:10189900AB07E4FFFE7D807C3F1208B1900243E074
:1018A900F8A3E0F9A3E0FAA3E0FB1209A690025716
:1018B900E025E025E02424F582E43400F583120DC7
:0B18C900FC900257E004F00216A12280
:101FD0004401683F4CCCCD44016400000000440142
:0C1FE00060400000004400FC0000000015
:101CCC0043A0C7E4900220F07F6412000090022031
:101CDC00E004F0E0C3940F40EFE4F5C0900220F074
:101CEC007F64120000900220E004F0E0C3940F40E7
:101CFC00EFE4F5A0900220F07F6412000012169918
:101D0C00900220E004F0E0C3940A40ECE49002203E
:101D1C00F0900220E0FB25E025E024B4F582E434C9
:101D2C0000F583E0FCA3E0FDA3E0FEA3E0FFEB25C0
:101D3C00E025E02404F582E43400F583120DFC90D8
:101D4C000220E0FB25E025E0244FF582E43400F589
:101D5C0083120E0800000000EB25E025E0246CF552
:101D6C0082E43401F583120E08000000009002207A
:101D7C00E0FB25E025E02400F582E43401F5831234
:101D8C000E0800000000EB25E025E024DCF582E4E1
:101D9C003400F583120E0800000000900220E0FBD6
:101DAC0025E025E02440F582E43401F583120E0889
:101DBC0000000000EB25E025E02420F582E434014E
:101DCC00F583120E0800000000900220E004F0E001
:101DDC0064086003021D1D121699E4900220F07F26
:101DEC0064120000900220E004F0E0C3940A40EF7B
:011DFC0022C4
:100E3900E4900241F0900241E0FF25E025E024B46E
:100E4900F582E43400F583E0F8A3E0F9A3E0FAA31E
:100E5900E0FBEF25E025E0244FF582E43400F5833B
:100E6900E0FCA3E0FDA3E0FEA3E0FF1208B19002BD
:100E790041E0FB25E025E0246CF582E43401F583AB
:100E8900120DFCEB25E025E0246CF582E43401F534
:100E990083E0FCA3E0FDA3E0FEA3E0FFE4FBFA7915
:100EA900A07840120B4C402D900241E025E025E04E
:100EB900246CF582E43401F583E0FCA3E0FDA3E0B2
:100EC900FEA3E0FFE4FBFA79A078C0120B4C6002A4
:100ED9005003021165900241E025E025E02400F568
:100EE90082E43401F583C083C082E0FCA3E0FDA362
:100EF900E0FEA3E0FF900241E025E025E0246CF547
:100F090082E43401F583E0F8A3E0F9A3E0FAA3E071
:100F1900FB1208B5D082D083120DFC900241E0FF8C
:100F290025E025E02440F582E43401F583E0F8A3C7
:100F3900E0F9A3E0FAA3E0FBEF25E025E0246CF556
:100F490082E43401F583E0FCA3E0FDA3E0FEA3E025
:100F5900FF1208B1900241E0FB25E025E024DCF511
:100F690082E43400F583120DFCEB25E025E0246CC6
:100F7900F582E43401F583E0FCA3E0FDA3E0FEA3E0
:100F8900E0FFEB25E025E02440F582E43401F58318
:100F9900120DFCEB25E025E02400F582E43401F58F
:100FA90083E0FCA3E0FDA3E0FEA3E0FF900164E081
:100FB900F8A3E0F9A3E0FAA3E0FB1209A6C004C074
:100FC90005C006C007900241E025E025E0246CF544
:100FD90082E43401F583E0FCA3E0FDA3E0FEA3E095
:100FE900FF900168E0F8A3E0F9A3E0FAA3E0FB129F
:100FF90009A6D003D002D001D0001208B5C004C0A0
:1010090005C006C007900241E025E025E024DCF593
:1010190082E43400F583E0FCA3E0FDA3E0FEA3E055
:10102900FF900160E0F8A3E0F9A3E0FAA3E0FB1266
:1010390009A6D003D002D001D0001208B590024110
:10104900E0FB25E025E02420F582E43401F5831254
:101059000DFCEB25E025E02420F582E43401F5833D
:10106900E0FCA3E0FDA3E0FEA3E0FFE4FBFAF9F84E
:10107900120B4C5029900241E025E025E02420F58F
:1010890082E43401F583C083C082E0FCA3E0FDA3C0
:10109900E0FEA3E0FFE4FBFA79C07840802EC37438
:1010A9000194005031900241E025E025E02420F52B
:1010B90082E43401F583C083C082E0FCA3E0FDA390
:1010C900E0FEA3E0FFE4FBFA79C078C01208B5D0CE
:1010D90082D083120DFC900241E025E025E0242016
:1010E900F582E43401F583E0FCA3E0FDA3E0FEA36F
:1010F900E0FFE4FBFA79FA7843120B4C501A90029C
:1011090041E025E025E02420F582E43401F583124D
:101119000E0843FA0000805C900241E025E025E0DA
:101129002420F582E43401F583E0FCA3E0FDA3E08B
:10113900FEA3E0FFE4FBFA79FA78C3120B4C6034A2
:101149004032900241E025E025E02420F582E43494
:1011590001F583120E08C3FA00008018900241E0DD
:1011690025E025E02420F582E43401F583120E08F8
:1011790000000000900241E004F0E064086003020E
:021189000E3E18
:01118B002241
:102C4800438E0475D74875D6F4438E1043AF0422DB
:10118C009000FCE0FCA3E0FDA3E0FEA3E02401FF43
:10119C00E43EFEE43DFDE43CFC9000FC120DFCE45E
:1011AC007F107E27FDFC9000FCE0F8A3E0F9A3E0A3
:1011BC00FAA3E0FBC3120DB3501DE5A07026E5C0E9
:1011CC0070227FD07E07FDFC9000FCE0F8A3A3A367
:1011DC00E0C3120DB3400D9000FC120E080000008D
:1011EC0000120E39E47F03FEFDFC9000FCE0F8A336
:1011FC00E0F9A3E0FAA3E0FBD3120DB34003021312
:10120C00AFE4900240F0900240E0FFC3940840032A
:10121C00021450EF25E025E02420F582E43401F59A
:10122C0083E0FCA3E0FDA3E0FEA3E0FFE4FBFA797E
:10123C00E07840120B4C40030212E5900240E0258E
:10124C00E025E02420F582E43401F583E0FCA3E002
:10125C00FDA3E0FEA3E0FFE4FBFA7920784112093C
:10126C00A6120C14900240E0FD25E0248CF582E4DB
:10127C003401F583EEF0A3EFF0EDB4080040030267
:10128C0013A6901295F82828730212AD0212B4021C
:10129C0012BB0212C20212C90212D00212D70212DF
:1012AC00DEC2A0D2A10213A6C2A2D2A30213A6C26E
:1012BC00A4D2A50213A6C2A6D2A70213A6C2C0D25C
:1012CC00C10213A6C2C2D2C30213A6C2C4D2C502A3
:1012DC0013A6C2C6D2C70213A6900240E025E02591
:1012EC00E02420F582E43401F583E0FCA3E0FDA3C7
:1012FC00E0FEA3E0FFE4FBFA79E078C0120B4C604F
:10130C000250030213A6900240E025E025E02420C1
:10131C00F582E43401F583E0FCA3E0FDA3E0FEA339
:10132C00E0FF120BC5E4FBFA797078411209A612A2
:10133C000C14900240E0FD25E0248CF582E434018D
:10134C00F583EEF0A3EFF0EDB40800504D90136070
:10135C00F828287302137802137E02138402138A6E
:10136C0002139002139602139C0213A2D2A0C2A1E4
:10137C008028D2A2C2A38022D2A4C2A5801CD2A64D
:10138C00C2A78016D2C0C2C18010D2C2C2C3800A0A
:10139C00D2C4C2C58004D2C6C2C7900240E004F0D9
:1013AC00021212E4900240F0900240E0FFC3940855
:1013BC004003021450EF25E0248CF582E43401F54F
:1013CC0083E0FEA3E0D39400EE940040189002401A
:1013DC00E025E0248CF582E43401F58374FFF5F00C
:1013EC00120D8F8056900240E0B40800504D9014BE
:1013FC0001F828287302141902141F021425021470
:10140C002B02143102143702143D021443C2A0C241
:10141C00A18028C2A2C2A38022C2A4C2A5801CC2E1
:10142C00A6C2A78016C2C0C2C18010C2C2C2C380ED
:10143C000AC2C4C2C58004C2C6C2C7900240E0043E
:04144C00F00213B4E3
:011450002279
:102AC80041C0000042D70000427A000042BB00002B
:102AD80042460000427E0000427A000042BB0000ED
:102AE800427A000042BB000041C0000042D700000B
:102AF800427A000042BB000042460000427E0000CD
:101FEC0041021F0044020F437A0000440213437A5B
:101FFC0000004401F13F0000004402170000000003
:10200C0044021B43AF0000440205000000004402E0
:0D201C00090000000041020D0041020E000D
:1023940090021FE004F0E024FE605704600302246E
:1023A4004790004F120E0841F00000900053120EA7
:1023B4000841F00000900057120E0842700000908F
:1023C400005B120E080000000090005F120E08422D
:1023D400700000900063120E080000000090006777
:1023E400120E080000000090006B120E0841F0006D
:1023F400002290004F120E080000000090005312BB
:102404000E0800000000900057120E0800000000A3
:1024140090005B120E0841F0000090005F120E085D
:1024240000000000900063120E0841F000009000CC
:1024340067120E084270000090006B120E08000034
:09244400000022E490021FF022C6
:06250100900258120DFCCF
:1025070090025CE0FCA3E0FDA3E0FEA3E0FF9002E5
:102517005CE0F8A3E0F9A3E0FAA3E0FB1209A6C088
:1025270004C005C006C007900258E0FCA3E0FDA365
:10253700E0FEA3E0FFA804A905AA06FB1209A6D09E
:1025470003D002D001D0001208B51225B5E4FBFA7A
:10255700F97840120AAF90020FE0F8A3E0F9A3E080
:10256700FAA3E0FB1209A6122A3CC004C005C00664
:10257700C007900258E0FCA3E0FDA3E0FEA3E0FF44
:10258700120BC5A804A905AA06AB0790025CE0FCDC
:10259700A3E0FDA3E0FEA3E0FF120AAF121E1DD0C9
:0A25A70003D002D001D0000208B1F9
:06202A00900260120DFCA3
:10203000900264E0FCA3E0FDA3E0FEA3E0FF9002B9
:1020400064E0F8A3E0F9A3E0FAA3E0FB1209A6C05C
:1020500004C005C006C007900260E0FCA3E0FDA339
:10206000E0FEA3E0FFA804A905AA06FB1209A6D07A
:1020700003D002D001D0001208B5C004C005C006CC
:10208000C00790020FE0FCA3E0FDA3E0FEA3E0FF89
:10209000A804A905AA06FB1209A6A804A905AA0670
:1020A000AB07D007D006D005D0041208B1C004C0D9
:1020B00005C006C007900213E0FCA3E0FDA3E0FE0C
:1020C000A3E0FFA804A905AA06FB1209A6A804A973
:1020D00005AA06AB07D007D006D005D0041208B178
:1020E000E4FBFAF97840120AAF900213E0F8A3E09B
:1020F000F9A3E0FAA3E0FB1209A690020FE0F8A30F
:10210000E0F9A3E0FAA3E0FB1209A6122A3CA80416
:10211000A905AA06AB077FC37EF57D487C4002086F
:01212000B10D
:10145100900000E0FCA3E0FDA3E0FEA3E0FF90010B
:10146100F1E0F8A3E0F9A3E0FAA3E0FB1209A690EA
:101471000205120DFC900091E0FCA3E0FDA3E0FE4B
:10148100A3E0FF9001F1E0F8A3E0F9A3E0FAA3E003
:10149100FB1209A6900209120DFC9001F5E0F8A3D8
:1014A100E0F9A3E0FAA3E0FBC000C001C002C00361
:1014B100900209E0FCA3E0FDA3E0FEA3E0FF90029F
:1014C10005E0F8A3E0F9A3E0FAA3E0FB1208B5D028
:1014D10003D002D001D0001208B59001F5120DFC25
:1014E1009001F9E0F8A3E0F9A3E0FAA3E0FBC00062
:1014F100C001C002C003900209E0FCA3E0FDA3E02B
:10150100FEA3E0FF120BC5900205E0F8A3E0F9A3EA
:10151100E0FAA3E0FB1208B5D003D002D001D0005D
:101521001208B59001F9120DFC9001FDE0F8A3E05D
:10153100F9A3E0FAA3E0FBC000C001C002C0039020
:101541000205E0FCA3E0FDA3E0FEA3E0FF120BC552
:10155100900209E0F8A3E0F9A3E0FAA3E0FB120886
:10156100B5D003D002D001D0001208B59001FD1210
:101571000DFC900201E0F8A3E0F9A3E0FAA3E0FB7F
:10158100C000C001C002C003900209E0FCA3E0FD5D
:10159100A3E0FEA3E0FF120BC5C004C005C006C056
:1015A10007900205E0FCA3E0FDA3E0FEA3E0FF122B
:1015B1000BC5D003D002D001D0001208B5D003D0A2
:1015C10002D001D0001208B5900201120DFCE49086
:1015D100020DF090020DE0C394085054A3E025E001
:1015E10025E024F5F582E43401F583E0FCA3E0FD78
:1015F100A3E0FEA3E0FF90025C120DFC900217E055
:10160100FCA3E0FDA3E0FEA3E0FF12250190020D83
:10161100E025E025E0244FF582E43400F583120D46
:10162100FC90020EE004F090020DE02402F080A391
:10163100E490020EF090020D04F090020DE0C394CC
:10164100085054A3E025E025E024F5F582E43401B7
:10165100F583E0FCA3E0FDA3E0FEA3E0FF900264BC
:10166100120DFC900217E0FCA3E0FDA3E0FEA3E055
:10167100FF12202A90020DE025E025E0244FF5829B
:10168100E43400F583120DFC90020EE004F09002A8
:081691000DE02402F080A32209
:1008AE00020C80E86480F8E933E83360110460F0EC
:1008BE00ED33EC337009E8FCE9FDEAFEEBFF2204B0
:1008CE0060DED3EB9FEA9EE99DE8C2E78CF0C2F7AB
:1008DE0095F0400CE8CCF8E9CDF9EACEFAEBCFFB77
:1008EE00120C4B85D0F05804700320D5B3E8047079
:1008FE00075002B2D5020C8A92D5EC0460F7E4CC14
:10090E00C0E0C398F8603B94186008400DD0E0FB3F
:10091E00020C62E4FBFAC9FC8028E830E406E4C964
:10092E00FBE4CAFCE830E305E4C9CACBFCE8540793
:10093E006010F8C3E913F9EA13FAEB13FBEC13FC9E
:10094E00D8F130F52FC3E49CFCEF9BFFEE9AFEED41
:10095E0099FDD0E0FBEF4E4D4C701222DB03020CE2
:10096E0087EC2CFCEF33FFEE33FEED33FDED30E77D
:10097E00EB020C62EF2BFFEE3AFEED39FDD0E0FB01
:10098E0050130BBB0003020C8AED13FDEE13FEEFAA
:08099E0013FFEC13FC020C62D4
:1009A600EC4D6011E8497017ED33EC3304600DE44B
:1009B600FCFFFEFD22E933E8330470F8020C8012D6
:1009C6000C4B58046009E4CC2481500628500902D7
:1009D6000C8A284003020C87C0E0EB4A7044B980B9
:1009E60006D0E0FB020C76EF4E701CBD8008EBFFD4
:1009F600EAFEE9FD80EBE98DF0A4FEE5F0020A8F40
:100A0600E9CDF9EAFEEBFFEF89F0A4FCE5F0CE892B
:100A1600F0A42EFFE435F0CD89F0A42DFEE435F0E8
:100A26008067EF4E7005BD80D780C3EF8BF0A4AC16
:100A3600F0EE8BF0A42CFCE435F0F8EF8AF0A42C51
:100A4600E5F038FCE433CB8DF0A42CFCE5F03BF864
:100A5600EE8AF0A42CFCE5F038F8E433CF89F0A454
:100A66002CFCE5F038CF3400CE89F0A42FFFE5F05A
:100A76003EFEE433C98DF0A42EFEE5F039CD8AF0B2
:100A8600A42FFFE5F03EFEE43DFD33D0E0FB50072A
:100A96000BBB000F020C8AEC2CFCEF33FFEE33FE8F
:060AA600ED33FD020C62BD
:100AAC00020C8AEC5D046005E859047003020C80AA
:100ABC00120C4B580460F6EC4860F2EC7004FDFE2E
:100ACC00FF22C860DB2481C85009C398600250061D
:100ADC00020C879850CAF582E9294B4A7005AB8203
:100AEC00020C7675F0007C1A7880C3EF9BEE9AEDC1
:100AFC0099400DC3EF9BFFEE9AFEED99FDE842F095
:100B0C00DC23ACF0D0E0FFD0E0FED0E0FDAB8220E7
:100B1C00E7101BEB60BAEC2CFCEF33FFEE33FEED71
:100B2C0033FD020C62E803F830E705C0F075F00005
:100B3C00EF2FFFEE33FEED33FD40B830E7C280AA55
:100B4C0074F8CC6480CCC86480C8F58204604FC350
:100B5C00EB9FF5F0EA9E42F0E99D42F0E89C45F0EF
:100B6C00603C501DE5825FFFE582D313CB5BCBF479
:100B7C002B5582FB50280ABA002409B900200880A2
:100B8C001DE5825BFBE582D313CF5FCFF4C3132F3C
:100B9C005582FF50090EBE00050DBD00010CC3EBC4
:100BAC009FF5F0EA9E42F0E99D42F0E89C45F0602A
:090BBC0007CC4820E701B3EC224C
:100BC500ED33EC33600A047003BD8004ECB2E7FC3E
:010BD50022FD
:100BD60075F020800E75F010800575F0087D007E9A
:100BE600007F003392D530D503120DA5EC334010AB
:100BF600EF33FFEE33FEED33FDEC33FCD5F0ED22A3
:0E0C0600E5F0247EA2D513CC92E7CDCEFF22DE
:100C1400EDD2E7CD33EC3392D524814006E4FFFED8
:100C2400FDFC22FCE4CFCECDCC24E0501174FF8037
:100C3400EDC3CC13CCCD13CDCE13CECF13CF0470D4
:070C4400F030D5DE020DA522
:1025B100020C8022EDA2E7D2E7F9EC3340F260F39E
:1025C100B4FF08ED547F70E8020C8AF82481C2E060
:1025D100C0E0F40428FAC313FCED92E7FD90026811
:1025E100120DFCEEA2E7E9BA7F02C3133400940096
:1025F100FA75F091A4E5F013F494FE8AF0A433E5A2
:10260100F033248CD313FDE492E7FE7F007C3F7509
:102611008302ECC0E0F8EDC0E0F9EEC0E0FAEFC0F3
:10262100E0FB8583F0900268120DC485F083120AE5
:10263100AFD0E0FBD0E0FAD0E0F9D0E0F81208B575
:10264100ED6480FD30E7011CD583C7ED33CC33F851
:0C265100D0E0A2E71328C313CC13FD2235
:101DFD00BE1249253E4CCCCDBEAAAAAB3F800000F9
:101E0D003E7ADBB03EED63383F24BC7D3F490FDBAE
:101E1D00ED33ECC2E7CC339200B4FF13ED547F6089
:101E2D0003020C807FDB7E0F7DC97C3F021F12C237
:101E3D0001C3947F401E7007EDD2E794904015EFDB
:101E4D00FBEEFAEDF9ECF87F007E007D807C3F1211
:101E5D000AAFD201ED33EC33248430E705E4C0E062
:101E6D00806B04FAEDD2E754F0C333DAFD54073436
:101E7D00002323C0E0CCC0E0F8EDC0E0F9EEC0E0F7
:101E8D00FAEFC0E0FBE4120BE0EC24FEFC90026CD8
:101E9D00120DFC1209A67B007A007980783F12089A
:101EAD00B590026CE0B2E7CCF0A3E0CDF0A3E0CEAC
:101EBD00F0A3E0CFF0D0E0FBD0E0FAD0E0F9D0E035
:101ECD00F81208B590026C120DE0120AAF90026C78
:101EDD00120DFC901DFD7403120C9590026C120DE9
:101EED00E01209A6D0E0600F2409F582E4341EF556
:101EFD0083120DEC1208B530010B7BDB7A0F79C91B
:101F0D0078BF1208B5ED33EC336006ECA20092E712
:021F1D00FC22A4
:102A3C00ECC0E0F8EDC0E0F9EEC0E0FAEFC0E0FB6E
:102A4C001209A6EC6480FC7B007A007980783F1236
:102A5C0008B51225B5D0E0FBD0E0FAD0E0F9D0E013
:102A6C00F8C0E0120AAF121E1DD0E030E70B784020
:0A2A7C0079497A0F7BD91208B522C0
:100C4B00E9D2E7C933E833F892D5EDD2E7CD33ECEF
:070C5B0033FC5002B2D52268
:100C6200EC30E7100FBF000C0EBE00080DBD0004F3
:100C72000BEB6014A2D5EB13FCED92E7FD2274FF9F
:100C8200FCFDFEFF22E480F8A2D574FF13FC7D80F8
:030C9200E480EF0C
:100C9500C0E0EFFBEEFAEDF9ECF81209A6D0E0F5AD
:100CA500F0EFFBEEFAEDF9ECF8120DD0A3A3A3A338
:100CB500E8C0E0E9C0E0EAC0E0EBC0E0C0F012093E
:100CC500A6120DECA3A3A3A31208B5D0F0D0E0FBA8
:0D0CD500D0E0FAD0E0F9D0E0F8D5F0D4225C
:1027A300022823E493A3F8E493A34003F68001F201
:1027B30008DFF48029E493A3F85407240CC8C33337
:1027C300C4540F4420C8834004F456800146F6DF06
:1027D300E4800B0102040810204080901F1FE47E58
:1027E300019360BCA3FF543F30E509541FFEE493FB
:1027F300A360010ECF54C025E060A840B8E493A3C2
:10280300FAE493A3F8E493A3C8C582C8CAC583CAEC
:10281300F0A3C8C582C8CAC583CADFE9DEE780BEA4
:0120290000B6
:100CE200BB010689828A83E0225002E722BBFE0210
:090CF200E32289828A83E4932243
:100CFB00BB010CE58229F582E5833AF583E02250AE
:100D0B0006E92582F8E622BBFE06E92582F8E222F7
:0D0D1B00E58229F582E5833AF583E4932211
:100D2800EF8DF0A4A8F0CF8CF0A428CE8DF0A42EDF
:020D3800FE2299
:100D3A00BC000BBE0029EF8DF084FFADF022E4CC9D
:100D4A00F875F008EF2FFFEE33FEEC33FCEE9DEC66
:100D5A00984005FCEE9DFE0FD5F0E9E4CEFD22EDAC
:100D6A00F8F5F0EE8420D21CFEADF075F008EF2FF6
:100D7A00FFED33FD4007985006D5F0F222C398FDE7
:050D8A000FD5F0EA2284
:100D8F00C5F0F8A3E028F0C5F0F8E58215827002EF
:060D9F001583E038F0228C
:0E0DA500C3E49FFFE49EFEE49DFDE49CFC225F
:100DB300EB9FF5F0EA9E42F0E99D42F0E89C45F096
:010DC300220D
:0C0DC400E0FCA3E0FDA3E0FEA3E0FF22A2
:100DD000E493FC740193FD740293FE740393FF2269
:0C0DE000E0F8A3E0F9A3E0FAA3E0FB2296
:100DEC00E493F8740193F9740293FA740393FB225D
:0C0DFC00ECF0A3EDF0A3EEF0A3EFF0226A
:100E0800A8828583F0D083D082120E1F120E1F1283
:100E18000E1F120E1FE473E493A3C583C5F0C583A8
:100E2800C8C582C8F0A3C583C5F0C583C8C582C834
:010E38002297
:00000001FF
