:0300000002136187
:0C136100787FE4F6D8FD75813F0211078B
:031395000D0A003E
:101107001212A0E4F53CD2AFD2A9758901758CD82B
:10111700758AEF120D6A7FD07E071212F0121262E3
:10112700E4FF1210578F3BAC3BE4120ACE8F0D8EB3
:101137000C8D0B8C0A750E05750F107D0A7F0A1230
:101147000C3E7E137F951213277F327E0012128288
:0211570080CE48
:030003000213786D
:09137800758CD8758AEF053C3232
:1012A000750807750920750A01E4F50BF50CF50DB5
:0D12B000FB7A0079081210B47F0102136D63
:10002E000000000000000000002F0000000007008C
:10003E00070000147F147F1400242A7F2A12006206
:10004E0064081323003649552250000005030000B2
:10005E0000001C224100000041221C000014083E3A
:10006E0008140008083E0808000000A06000000800
:10007E000808080800006060000000201008040254
:10008E00003E5149453E0000427F40000042615112
:10009E004946002141454B31001814127F100027AC
:1000AE0045454539003C4A4949300001710905036F
:1000BE0000364949493600064949291E00003636A0
:1000CE000000000056360000000814224100001403
:1000DE0014141414000041221408000201510906E0
:1000EE0000324959513E007C1211127C007F494961
:1000FE004936003E41414122007F4141221C007F92
:10010E0049494941007F09090901003E4149497A9F
:10011E00007F0808087F0000417F41000020404119
:10012E003F01007F08142241007F40404040007F85
:10013E00020C027F007F0408107F003E4141413EC9
:10014E00007F09090906003E4151215E007F091911
:10015E0029460046494949310001017F0101003F0E
:10016E004040403F001F2040201F003F4038403F8E
:10017E0000631408146300070870080700615149F2
:10018E00454300007F41410000552A552A55000085
:10019E0041417F0000040201020400404040404003
:1001AE00000001020400002054545478007F48449B
:1001BE00443800384444442000384444487F0038D2
:1001CE005454541800087E0901020018A4A4A47CFB
:1001DE00007F080404780000447D400000408084C5
:1001EE007D00007F102844000000417F4000007C0D
:1001FE0004180478007C0804047800384444443819
:10020E0000FC242424180018242418FC007C080464
:10021E00040800485454542000043F444020003C3D
:10022E004040207C001C2040201C003C4030403CC4
:10023E00004428102844001CA0A0A07C0044645454
:10024E004C44141414141414000000000000000098
:10025E000000000000000000000000F80000000098
:10026E00000000333000000000100C06100C0600D9
:10027E00000000000000000040C07840C078400040
:10028E00043F04043F040400007088FC08300000A2
:10029E00001820FF211E0000F008F000E0180000FA
:1002AE0000211C031E211E0000F0088870000000B3
:1002BE001E2123241927211010160E000000000005
:1002CE000000000000000000000000E01804020022
:1002DE00000000071820400000020418E000000093
:1002EE000040201807000000404080F08040400091
:1002FE000202010F01020200000000F000000000E7
:10030E000101011F010101000000000000000000BA
:10031E0080B070000000000000000000000000002F
:10032E0000010101010101010000000000000000B8
:10033E000030300000000000000000008060180453
:10034E00006018060100000000E010080810E00030
:10035E00000F102020100F00001010F800000000F9
:10036E000020203F20200000007008080888700040
:10037E0000302824222130000030088888483000C0
:10038E000018202020110E000000C02010F80000E0
:10039E0000070424243F240000F808888808080079
:1003AE000019212020110E0000E01088881800008E
:1003BE00000F112020110E0000380808C838080060
:1003CE000000003F000000000070880808887000E0
:1003DE00001C222121221C0000E010080810E00061
:1003EE000000312222110F00000000C0C0000000EA
:1003FE00000000303000000000000080000000000F
:10040E000000806000000000000080402010080006
:10041E0000010204081020004040404040404000CF
:10042E0004040404040404000008102040800000AA
:10043E000020100804020100007048080808F000AF
:10044E000000003036010000C030C828E810E0007F
:10045E000718272423140B000000C038E00000000A
:10046E00203C23020227382008F888888870000074
:10047E00203F202020110E00C03008080808380048
:10048E00071820202010080008F808080810E000BF
:10049E00203F202020100F0008F88888E808100060
:1004AE00203F20202320180008F88888E808100034
:1004BE00203F200003000000C0300808083800006C
:1004CE0007182020221E020008F808000008F8086D
:1004DE00203F210101213F20000808F808080000F4
:1004EE000020203F2020000000000808F808080027
:1004FE00C08080807F00000008F888C0281808009F
:10050E00203F20012638200008F8080000000000D7
:10051E00203F20202020300008F8F800F8F80800CE
:10052E00203F003F003F200008F830C00008F808C8
:10053E00203F200007183F00E01008080810E000D8
:10054E000F10202020100F0008F808080808F000EF
:10055E00203F210101010000E01008080810E00012
:10056E000F18242438504F0008F8888888887000A7
:10057E00203F2000030C3020007088080808380047
:10058E000038202121221C00180808F8080818003D
:10059E000000203F2000000008F808000008F808BE
:1005AE00001F202020201F000878880000C838086F
:1005BE00000007380E010000F80800F80008F800E7
:1005CE00033C0700073C0300081868808068180881
:1005DE0020302C03032C30200838C800C8380800FF
:1005EE000000203F2000000010080808C83808004E
:1005FE002038262120201800000000FE02020200F2
:10060E000000007F40404000000C30C000000000A1
:10061E00000000010638C00000020202FE000000C9
:10062E00004040407F00000000000402020204006F
:10063E0000000000000000000000000000000000AC
:10064E008080808080808080000202040000000094
:10065E00000000000000000000008080808000008C
:10066E000019242222223F2008F80080800000007A
:10067E00003F112020110E0000000080808000003D
:10068E00000E112020201100000000808088F8004C
:10069E00000E112020103F2000008080808000007E
:1006AE00001F222222221300008080F088888818E2
:1006BE000020203F202000000000808080808000ED
:1006CE00006B94949493600008F800808080000082
:1006DE00203F210000203F2000809898000000005D
:1006EE000020203F2020000000000080989800008D
:1006FE0000C08080807F000008F8000080808000AD
:10070E00203F24022D302000000808F800000000D1
:10071E000020203F2020000080808080808080008C
:10072E00203F20003F20003F80800080808000001E
:10073E00203F210000203F200000808080800000AC
:10074E00001F202020201F008080008080000000DD
:10075E0080FFA12020110E0000000080808080000C
:10076E00000E112020A0FF808080800080808000FD
:10077E0020203F212000010000008080808080002A
:10078E000033242424241900008080E0808000009F
:10079E000000001F202000008080000000808000EC
:1007AE00001F202020103F2080808000008080804D
:1007BE0000010E30080601008080008000808080DD
:1007CE000F300C030C300F00008080008080800002
:1007DE000020312E0E31200080808000008080802D
:1007EE0080818E70180601000080808080808000DD
:1007FE000021302C2221300000000000807C0202FB
:10080E0000000000003F404000000000FF0000001C
:10081E0000000000FF0000000002027C80000000CB
:10082E000040403F000000000006010102020404E7
:10083E000000000000000000202024242424BF64B7
:10084E002434282422202000000000000000000094
:10085E000000000000000000100804023F45444460
:10086E0042424241780000000000000000000000FB
:10087E0000000000000000000022261A92027E8076
:10088E0022261A12027E0000000000000000000066
:10089E000000000000000000080402FF55555555E9
:1008AE007F55555555410000000000000000000026
:0808BE00000000000000000032
:10128200D3EF9400EE940040147D657C18ED1D7040
:0D129200011CED4C70F7EF1F70E61E80E3AD
:01129F00222C
:1012F000EF1FAA0670011E4A600BE4FDEDC3947B4C
:0513000050EE0D80F726
:0113050022C5
:09138100D2C1D2C2C2C2C2C12213
:07138A00D2C1C2C2D2C2228F
:0B131700121222121322AF0412122245
:05132200D2C1C2C1228E
:07121B00AC071213817F787C
:10122200C2C1E4FEAD07530580BD8004D2C2800274
:0E123200C2C2EF25E0FFD2C1C2C10EBE08E667
:01124000228B
:0E13370012121B121322E4FF12131702138A64
:0E13450012121B1213227F4012131702138A7A
:10119900E924B0FFE433FEE4FDFC1211B4E4FDFCE4
:0B11A900FFFE1211B47F10E4FDFCFEFD
:1011B400AB07AA06ED4C6003021345AF03121337C5
:0111C4002208
:020006008F3D2C
:10000800E4F9121199E4F53EAF3D7E007D017C00D4
:100018001211B4053EE53EC3948040EC09B908E2EC
:0100280022B5
:1011C500A907ED24B0FFE433FEE4FDFC1211B4E9F8
:1011D50054F0C4540F7E004410FFE4FDFC1211B41A
:0C11E500E9540FFF7E00E4FDFC0211B491
:1012D9007F8D1211B0E4FDFC7F14FE1211B4E4FD00
:0712E900FC7FAFFE0211B40F
:10130600E4FDFC7F8D1211AAE4FDFC7FAEFE021106
:01131600B422
:10126200E4F9121199E4F5087D017C00E4FFFE1215
:0F12720011B40508E508C3948040ED09B908E3FD
:01128100224A
:10124100E4F9121199E4F53F7D017C007F017E00F4
:101251001211B4053FE53FC3948040EC09B908E29F
:01126100226A
:040E4A008F178D1859
:100E4E00E4F51BF9EB24E0F51BE517D3947F40077F
:100E5E00E4F51705180518E51A64107069AD18AF9A
:100E6E00171211C5E4F975F010E51BA429F582E4FB
:100E7E0035F0F583E5822456F582E5833402F58359
:100E8E00E493FF7E007D017C001211B409B908D6EF
:100E9E00E51804FDAF171211C5E4F975F010E51B46
:100EAE00A429F582E435F0F583E582245EF582E52A
:100EBE00833402F583E493FF7E007D017C001211E2
:100ECE00B409B908D622AD18AF171211C5E4F975D9
:100EDE00F006E51BA4242EF582E5F03400F583E53B
:100EEE008229F582E43583F583E493FF7E007D014C
:090EFE007C001211B409B906D6FA
:010F070022C7
:0A1159008F308D318B328A338934D8
:10116300E4F536AB32AA33A934853682758300128F
:101173000B9CFB602085351AAD31AF30120E4A74DB
:10118300082530F530D394784007E4F53005310570
:0511930031053680CE9D
:011198002234
:0412BD0014FD7F0A93
:0412C1008F17A905D5
:1012C5007F017E00AD0119ED6009AD177C00120BA1
:0312D500C980F1DC
:0112D80022F3
:080F08008F278D288A298B2A0E
:100F1000E4F52FF52DE52DC3952B5061C3E52B95F9
:100F20002D1212BDAC29AD2ACFCDCFCECCCE120B17
:100F3000DB7C007D0A120BDB8D2EE52F7023E52B69
:100F400014FFE52DC39F5019E52E7012E52CC31335
:100F5000852DF0A42527FF852C1A7B208016752F60
:100F600001E52CC313852DF0A42527FFE52E2430A1
:0D0F7000FB852C1AAD28120E4A052D809825
:010F7D002251
:040C3E008F088D0985
:100C4200E4F516AF0DAE0CAD0BAC0A120B028E1012
:100C52008F11E4FFFE7D7A7C44AB0DAA0CA90BA890
:100C62000A1209BEC004C005C006C007AE10AF110B
:100C72007C037DE8120BC9AC06AD07E4120AC9A8D1
:100C820004A905AA06AB07D007D006D005D00412E6
:100C920008C9120B028E128F13E4F514E514C395E2
:100CA2000E5061C3E50E95141212BDAC10AD11CFFA
:100CB200CDCFCECCCE120BDB7C007D0A120BDB8DAE
:100CC20015E5167023E50E14FFE514C39F5019E5D0
:100CD200157012E50FC3138514F0A42508FF850FC4
:100CE2001A7B208016751601E50FC3138514F0A434
:100CF2002508FFE5152430FB850F1AAD09120E4AAF
:100D020005148098E4F514C374029514FD7F0A1249
:100D120012C1AC12AD13CFCDCFCECCCE120BDB7C39
:100D2200007D0A120BDB8D15E50FC313FFE50E04E0
:100D32008FF0A42508FEEF8514F0A42EFFE51524FC
:100D420030FB850F1AAD09120E4A0514E514C3943F
:100D52000340B4E50FC313850EF0A42508FF850FE9
:080D62001A7B2EAD09020E4AB6
:060F7E008F378D388B391E
:100F8400E4F53A1211C5E4F9E53975F040A42446B4
:100F9400F582E43408F583E58229F582E43583F5A6
:100FA40083E493FF7E007D017C001211B4053A09AD
:100FB400B910D5E53804FDAF371211C5E4F9E539A8
:100FC40075F040A42466F582E43408F583E58229AB
:100FD400F582E43583F583E493FF7E007D017C0094
:090FE4001211B4053A09B910D547
:010FED0022E1
:040FEE008F1C8B1EAB
:100FF200E4F523F524E51F5407700BE51F131313C3
:10100200541FF526800AE51F131313541F04F526F7
:101012008D26E526C3951F503BAD26AF1C1211C588
:10102200851C25E525C3951E5026AB20AA21A922A1
:101032000524E524AE237002052314F5828E831263
:101042000B9CFF7E007D017C001211B4052580D32C
:04105200052680BE31
:011056002277
:100D6A00E4FDFC7FAEFE1211A3E4FDFC7F40FE12FF
:100D7A0011B4E4FDFC7FB0FE1211B4E4FDFC7F81E6
:100D8A00FE1211B4E4FDFC7FFFFE1211B4E4FDFC77
:100D9A007FA1FE1211B4E4FDFC7FA6FE1211B4E499
:100DAA00FDFC7FA8FE1211B4E4FDFC7F3FFE121188
:100DBA00B4E4FDFC7FC8FE1211B4E4FDFC7FD3FE4F
:100DCA001211B4E4FDFCFFFE1211B4E4FDFC7FD560
:100DDA00FE1211B4E4FDFC7F80FE1211B4E4FDFCA6
:100DEA007FD8FE1211B4E4FDFC7F05FE1211B4E4B3
:100DFA00FDFC7FD9FE1211B4E4FDFC7FF1FE121155
:100E0A00B4E4FDFC7FDAFE1211B4E4FDFC7F12FEAD
:100E1A001211B4E4FDFC7FDBFE1211B4E4FDFC7F89
:100E2A0030FE1211B4E4FDFC7F8DFE1211B4E4FD14
:100E3A00FC7F14FE1211B4E4FDFC7FAFFE0211B474
:1010B400120B83F59D900001120B9CFFE5BC549F1D
:1010C4004FF5BC900002120B9CB4010543BC808018
:1010D4000353BC7F900003120B9CB401054397207B
:1010E40080035397DF900005120B9CB40104D2AD2A
:1010F4008002C2AD900004120B9CB40103D2BD2245
:03110400C2BD2247
:0B136D00BF010443BC802253BC7F2260
:10105700EFD3940740028050E4F5BDF5BEE5BC54DC
:10106700E044084FF5BC00000000E4FBE5BC30E4B9
:101077003353BCEFE59730E509E5BD5403ADBEFC3E
:10108700801DAFBD7C00AD07ED7E007802C333CE77
:1010970033CED8F9FFE5BE5403FDEEFCEF4DFDAFAF
:0C10A70005AE04220BBBFAC47E047F00DF
:0110B300221A
:03002B000213912C
:0413910053BCEF3228
:0D1353007FAF7E00EF1F70011E144E70F77B
:01136000226A
:0211F100AD0748
:1011F300C2AFC2B1121353E4FCED30E004D2B180AC
:1012030002C2B1EDC313FD1213530CBC08EBD2B1F0
:08121300D2AF12135302135372
:101327008F828E83E493FF60061211F1A380F5226A
:1008C600020B6EE86480F8E933E83360110460F0E7
:1008D600ED33EC337009E8FCE9FDEAFEEBFF220498
:1008E60060DED3EB9FEA9EE99DE8C2E78CF0C2F793
:1008F60095F0400CE8CCF8E9CDF9EACEFAEBCFFB5F
:10090600120B3985D0F05804700320D5B3E8047073
:10091600075002B2D5020B7892D5EC0460F7E4CC0E
:10092600C0E0C398F8603B94186008400DD0E0FB27
:10093600020B50E4FBFAC9FC8028E830E406E4C95F
:10094600FBE4CAFCE830E305E4C9CACBFCE854077B
:100956006010F8C3E913F9EA13FAEB13FBEC13FC86
:10096600D8F130F52FC3E49CFCEF9BFFEE9AFEED29
:1009760099FDD0E0FBEF4E4D4C701222DB03020BCB
:1009860075EC2CFCEF33FFEE33FEED33FDED30E777
:10099600EB020B50EF2BFFEE3AFEED39FDD0E0FBFC
:1009A60050130BBB0003020B78ED13FDEE13FEEFA5
:0809B60013FFEC13FC020B50CF
:1009BE00EC4D6011E8497017ED33EC3304600DE433
:1009CE00FCFFFEFD22E933E8330470F8020B6E12D1
:1009DE000B3958046009E4CC2481500628500902D2
:1009EE000B78284003020B75C0E0EB4A7044B980C7
:1009FE0006D0E0FB020B64EF4E701CBD8008EBFFCF
:100A0E00EAFEE9FD80EBE98DF0A4FEE5F0020AA70F
:100A1E00E9CDF9EAFEEBFFEF89F0A4FCE5F0CE8913
:100A2E00F0A42EFFE435F0CD89F0A42DFEE435F0D0
:100A3E008067EF4E7005BD80D780C3EF8BF0A4ACFE
:100A4E00F0EE8BF0A42CFCE435F0F8EF8AF0A42C39
:100A5E00E5F038FCE433CB8DF0A42CFCE5F03BF84C
:100A6E00EE8AF0A42CFCE5F038F8E433CF89F0A43C
:100A7E002CFCE5F038CF3400CE89F0A42FFFE5F042
:100A8E003EFEE433C98DF0A42EFEE5F039CD8AF09A
:100A9E00A42FFFE5F03EFEE43DFD33D0E0FB500712
:100AAE000BBB000F020B78EC2CFCEF33FFEE33FE8A
:060ABE00ED33FD020B50B8
:100AC40075F020800E75F010800575F0087D007EAD
:100AD400007F003392D530D503120C30EC33401034
:100AE400EF33FFEE33FEED33FDEC33FCD5F0ED22B6
:0E0AF400E5F0247EA2D513CC92E7CDCEFF22F2
:100B0200EDD2E7CD33EC3392D524814006E4FFFEEB
:100B1200FDFC22FCE4CFCECDCC24E0501174FF804A
:100B2200EDC3CC13CCCD13CDCE13CECF13CF0470E7
:070B3200F030D5DE020C30AB
:100B3900E9D2E7C933E833F892D5EDD2E7CD33EC02
:070B490033FC5002B2D5227B
:100B5000EC30E7100FBF000C0EBE00080DBD000406
:100B60000BEB6014A2D5EB13FCED92E7FD2274FFB2
:100B7000FCFDFEFF22E480F8A2D574FF13FC7D800B
:030B8000E480EF1F
:100B8300BB010689828A83E0225002E722BBFE0270
:090B9300E32289828A83E49322A3
:100B9C00BB010CE58229F582E5833AF583E022500E
:100BAC0006E92582F8E622BBFE06E92582F8E22258
:0D0BBC00E58229F582E5833AF583E4932272
:100BC900EF8DF0A4A8F0CF8CF0A428CE8DF0A42E40
:020BD900FE22FA
:100BDB00BC000BBE0029EF8DF084FFADF022E4CCFE
:100BEB00F875F008EF2FFFEE33FEEC33FCEE9DECC7
:100BFB00984005FCEE9DFE0FD5F0E9E4CEFD22ED0D
:100C0B00F8F5F0EE8420D21CFEADF075F008EF2F56
:100C1B00FFED33FD4007985006D5F0F222C398FD47
:050C2B000FD5F0EA22E4
:0E0C3000C3E49FFFE49EFEE49DFDE49CFC22D5
:00000001FF
