:0300000002129A4F
:0C129A00787FE4F6D8FD7581510212E166
:0A168B00303132330054455354004F
:03160500013C00A5
:1014A30053BAFB7584DA75D3BF75D2FF43D120439A
:1014B300D18075AF10D2AFE4F53D12110012155B68
:1014C3007BFF7A16798B1215857BFF7A16799075D7
:1014D30043107D02E4FF1214EFE53DFB7A007542F1
:0C14E30003754310E4FDFF12132680D4B3
:030093000213F85D
:1013F800C0E0C0F0C083C082C0D075D000C000C0BB
:1014080001C002C003C004C005C006C007E584309F
:10141800E0115384FE858580AF85121633E5845428
:1014280004F5A0E58430E1055384FDC200D007D05F
:1014380006D005D004D003D002D001D000D0D0D03F
:0814480082D083D0F0D0E03225
:10163300AE3C053C74302EF8A60785303DE4F53CFE
:011643002284
:10161F002000FDEF30D0055384F78003438408D2B8
:04162F0000F585221B
:101585008B3E8A3F8940AB3EAA3FA940120D1560AC
:10159500130540E5407002053F14F9120D15FF12C1
:0515A500161F80E22288
:0F1644007D037C09ED1D70011C144C70F7DFF164
:011653002274
:100096000000000000000000002F00000000070024
:1000A600070000147F147F1400242A7F2A1200629E
:1000B600640813230036495522500000050300004A
:1000C60000001C224100000041221C000014083ED2
:1000D60008140008083E0808000000A06000000898
:1000E60008080808000060600000002010080402EC
:1000F600003E5149453E0000427F400000426151AA
:100106004946002141454B31001814127F10002743
:1001160045454539003C4A49493000017109050306
:1001260000364949493600064949291E0000363637
:10013600000000005636000000081422410000149A
:100146001414141400004122140800020151090677
:1001560000324959513E007C1211127C007F4949F8
:100166004936003E41414122007F4141221C007F29
:1001760049494941007F09090901003E4149497A37
:10018600007F0808087F0000417F410000204041B1
:100196003F01007F08142241007F40404040007F1D
:1001A600020C027F007F0408107F003E4141413E61
:1001B600007F09090906003E4151215E007F0919A9
:1001C60029460046494949310001017F0101003FA6
:1001D6004040403F001F2040201F003F4038403F26
:1001E600006314081463000708700807006151498A
:1001F600454300007F41410000552A552A5500001D
:1002060041417F000004020102040040404040409A
:10021600000001020400002054545478007F484432
:10022600443800384444442000384444487F003869
:100236005454541800087E0901020018A4A4A47C92
:10024600007F080404780000447D4000004080845C
:100256007D00007F102844000000417F4000007CA4
:1002660004180478007C08040478003844444438B0
:1002760000FC242424180018242418FC007C0804FC
:10028600040800485454542000043F444020003CD5
:100296004040207C001C2040201C003C4030403C5C
:1002A600004428102844001CA0A0A07C00446454EC
:1002B6004C44141414141414000000000000000030
:1002C6000000000000000000000000F80000000030
:1002D600000000333000000000100C06100C060071
:1002E600000000000000000040C07840C0784000D8
:1002F600043F04043F040400007088FC083000003A
:10030600001820FF211E0000F008F000E018000091
:1003160000211C031E211E0000F00888700000004A
:100326001E2123241927211010160E00000000009C
:100336000000000000000000000000E018040200B9
:10034600000000071820400000020418E00000002A
:100356000040201807000000404080F08040400028
:100366000202010F01020200000000F0000000007E
:100376000101011F01010100000000000000000052
:1003860080B07000000000000000000000000000C7
:100396000001010101010101000000000000000050
:1003A60000303000000000000000000080601804EB
:1003B600006018060100000000E010080810E000C8
:1003C600000F102020100F00001010F80000000091
:1003D6000020203F202000000070080808887000D8
:1003E6000030282422213000003008888848300058
:1003F6000018202020110E000000C02010F8000078
:1004060000070424243F240000F808888808080010
:100416000019212020110E0000E010888818000025
:10042600000F112020110E0000380808C8380800F7
:100436000000003F00000000007088080888700077
:10044600001C222121221C0000E010080810E000F8
:100456000000312222110F00000000C0C000000081
:1004660000000030300000000000008000000000A6
:10047600000080600000000000008040201008009E
:100486000001020408102000404040404040400067
:100496000404040404040400000810204080000042
:1004A6000020100804020100007048080808F00047
:1004B6000000003036010000C030C828E810E00017
:1004C6000718272423140B000000C038E0000000A2
:1004D600203C23020227382008F88888887000000C
:1004E600203F202020110E00C030080808083800E0
:1004F600071820202010080008F808080810E00057
:10050600203F202020100F0008F88888E8081000F7
:10051600203F20202320180008F88888E8081000CB
:10052600203F200003000000C03008080838000003
:1005360007182020221E020008F808000008F80804
:10054600203F210101213F20000808F8080800008B
:100556000020203F2020000000000808F8080800BE
:10056600C08080807F00000008F888C02818080036
:10057600203F20012638200008F80800000000006F
:10058600203F20202020300008F8F800F8F8080066
:10059600203F003F003F200008F830C00008F80860
:1005A600203F200007183F00E01008080810E00070
:1005B6000F10202020100F0008F808080808F00087
:1005C600203F210101010000E01008080810E000AA
:1005D6000F18242438504F0008F88888888870003F
:1005E600203F2000030C30200070880808083800DF
:1005F6000038202121221C00180808F808081800D5
:100606000000203F2000000008F808000008F80855
:10061600001F202020201F000878880000C8380806
:10062600000007380E010000F80800F80008F8007E
:10063600033C0700073C0300081868808068180818
:1006460020302C03032C30200838C800C838080096
:100656000000203F2000000010080808C8380800E5
:100666002038262120201800000000FE0202020089
:100676000000007F40404000000C30C00000000039
:10068600000000010638C00000020202FE00000061
:10069600004040407F000000000004020202040007
:1006A6000000000000000000000000000000000044
:1006B600808080808080808000020204000000002C
:1006C6000000000000000000000080808080000024
:1006D6000019242222223F2008F800808000000012
:1006E600003F112020110E000000008080800000D5
:1006F600000E112020201100000000808088F800E4
:10070600000E112020103F20000080808080000015
:10071600001F222222221300008080F08888881879
:100726000020203F20200000000080808080800084
:10073600006B94949493600008F800808080000019
:10074600203F210000203F200080989800000000F4
:100756000020203F20200000000000809898000024
:1007660000C08080807F000008F800008080800044
:10077600203F24022D302000000808F80000000069
:100786000020203F20200000808080808080800024
:10079600203F20003F20003F8080008080800000B6
:1007A600203F210000203F20000080808080000044
:1007B600001F202020201F00808000808000000075
:1007C60080FFA12020110E000000008080808000A4
:1007D600000E112020A0FF80808080008080800095
:1007E60020203F21200001000000808080808000C2
:1007F6000033242424241900008080E08080000037
:100806000000001F20200000808000000080800083
:10081600001F202020103F208080800000808080E4
:1008260000010E3008060100808000800080808074
:100836000F300C030C300F00008080008080800099
:100846000020312E0E3120008080800000808080C4
:1008560080818E7018060100008080808080800074
:100866000021302C2221300000000000807C020292
:1008760000000000003F404000000000FF000000B4
:1008860000000000FF0000000002027C8000000063
:100896000040403F0000000000060101020204047F
:1008A6000000000000000000202024242424BF644F
:1008B600243428242220200000000000000000002C
:1008C6000000000000000000100804023F454444F8
:1008D6004242424178000000000000000000000093
:1008E60000000000000000000022261A92027E800E
:1008F60022261A12027E00000000000000000000FE
:100906000000000000000000080402FF5555555580
:100916007F555555554100000000000000000000BD
:080926000000000000000000C9
:09169500D295D294C294C29522B0
:07008B00D295C294D2942229
:0B16540012000A12165FAF0412000A19
:05165F00D295C29522A6
:07000300AC071216957F788F
:10000A00C295E4FEAD07530580BD8004D2948002F8
:0E001A00C294EF25E0FFD295C2950EBE08E617
:0100280022B5
:0E16640012000312165FE4FF12165402008BF0
:0E16720012000312165F7F4012165402008B06
:1015AA001215BBE4FDFCFFFE1215BB7F10E4FDFC27
:0115BA00FE32
:1015BB00AB07AA06ED4C6003021672AF031216645A
:0115CB0022FD
:10152F00A907ED24B0FFE433FEE4FDFC1215BBE97F
:10153F0054F0C4540F7E004410FFE4FDFC1215BBA1
:0C154F00E9540FFF7E00E4FDFC0215BB18
:10155B00E4F9E924B0FFE433FEE4FDFC1215AAE440
:10156B00F53E7D017C00E4FFFE1215BB053EE53E1A
:09157B00C3948040ED09B908D9C0
:011584002244
:0411DC008F478D4864
:1011E000E4F54BF9EB24E0F54BE547D3947F40075A
:1011F000E4F54705480548E54A64107069AD48AF15
:101200004712152FE4F975F010E54BA429F582E497
:1012100035F0F583E58224BEF582E5833402F5835B
:10122000E493FF7E007D017C001215BB09B908D64E
:10123000E54804FDAF4712152FE4F975F010E54BB2
:10124000A429F582E435F0F583E58224C6F582E52C
:10125000833402F583E493FF7E007D017C00121548
:10126000BB09B908D622AD48AF4712152FE4F9756E
:10127000F006E54BA42496F582E5F03400F583E50D
:101280008229F582E43583F583E493FF7E007D01B6
:091290007C001215BB09B906D659
:011299002232
:0A14EF008F3E8D3F8B408A418942F9
:1014F900E4F544AB40AA41A94285448275830012B0
:101509000D2EFB602085434AAD3FAF3E1211DC74BE
:1015190008253EF53ED394784007E4F53E053F059E
:051529003F054480CEE7
:01152E00229A
:0415E90014FD7F0A64
:0415ED008F47A90576
:1015F1007F017E00AD0119ED6009AD477C00120D40
:031601005B80F11A
:0116040022C3
:081326008F3E8D3F8A408B4190
:10132E00E4F546F544E544C395425061C3E5429564
:10133E00441215E9AC40AD41CFCDCFCECCCE120D7F
:10134E006D7C007D0A120D6D8D45E5467023E542DC
:10135E0014FFE544C39F5019E5457012E543C313CE
:10136E008544F0A4253EFF85434A7B2080167546B2
:10137E0001E543C3138544F0A4253EFFE545243023
:0D138E00FB85434AAD3F1211DC05448098F9
:01139B00222F
:040F8C008F218D2202
:100F9000E4F52FFFFEFDFCAB26AA25A924A8231209
:100FA0000BCC502185284A7B2DAD22AF211211DCBC
:100FB000AF26AE25AD24AC23120C458F268E258D91
:100FC000248C23800C85284A7B20AD22AF2112116E
:100FD000DCAF26AE25AD24AC23120C948E298F2ACB
:100FE000E4FFFE7D7A7C44AB26AA25A924A823121F
:100FF0000A26C004C005C006C007AE29AF2A7C037C
:101000007DE8120D5BAC06AD07E4120C5BA804A9E9
:1010100005AA06AB07D007D006D005D004120931C7
:10102000120C948E2B8F2CE4F52DE52DC3952750B3
:1010300067C3E527952D1215E9AC29AD2ACFCDCF91
:10104000CECCCE120D6D7C007D0A120D6D8D2EE57D
:101050002F7026E52714FFE52DC39F501CE52E7049
:1010600015E528C313FFE52D048FF0A42521FF8586
:10107000284A7B208019752F01E528C313FFE52D31
:10108000048FF0A42521FFE52E2430FB85284AADEE
:10109000221211DC052D8092E4F52DC37402952DEA
:1010A000FD7F0A1215EDAC2BAD2CCFCDCFCECCCE23
:1010B000120D6D7C007D0A120D6D8D2EE528C31377
:1010C000FFE52724028FF0A42521FEEF852DF0A453
:1010D0002EFFE52E2430FB85284AAD221211DC05B7
:1010E0002DE52DC3940240B3E528C313FFE5270483
:1010F0008FF0A42521FF85284A7B2EAD220211DC2A
:10110000E4FDFC7FAEFE1215AA7F401215B7E4FD88
:10111000FC7FB0FE1215BBE4FDFC7F81FE1215BB07
:10112000E4FDFC7FFFFE1215BBE4FDFC7FA1FE1277
:1011300015BBE4FDFC7FA6FE1215BBE4FDFC7FA8F9
:10114000FE1215BBE4FDFC7F3FFE1215BBE4FDFC67
:101150007FC8FE1215BBE4FDFC7FD3FE1215BBE475
:10116000FDFCFFFE1215BBE4FDFC7FD5FE1215BB96
:10117000E4FDFC7F80FE1215BBE4FDFC7FD8FE126F
:1011800015BBE4FDFC7F05FE1215BBE4FDFC7FD919
:10119000FE1215BBE4FDFC7FF1FE1215BBE4FDFC65
:1011A0007FDAFE1215BBE4FDFC7F12FE1215BBE4D4
:1011B000FDFC7FDBFE1215BBE4FDFC7F30FE12154B
:1011C000BBE4FDFC7F8DFE1215BBE4FDFC7F14FE2D
:0C11D0001215BBE4FDFC7FAFFE0215BB56
:10145000120D15F59D900001120D2EFFE5BC549F55
:101460004FF5BC900002120D2EB4010543BC8080E4
:101470000353BC7F900003120D2EB4010543972047
:1014800080035397DF900005120D2EB40104D2ADF6
:101490008002C2AD900004120D2EB40103D2BD2211
:0314A000C2BD22A8
:0B168000BF010443BC802253BC7F224A
:10002E00EFD3940740028050E4F5BDF5BEE5BC5415
:10003E00E044084FF5BC00000000E4FBE5BC30E4F2
:10004E003353BCEFE59730E509E5BD5403ADBEFC77
:10005E00801DAFBD7C00AD07ED7E007802C333CEB0
:10006E0033CED8F9FFE5BE5403FDEEFCEF4DFDAFE8
:0C007E0005AE04220BBBFAC47E047F0018
:01008A002253
:03002B0002169E1C
:04169E0053BCEF3218
:10160800011D0001110101080101120104173F4CDD
:06161800CCCD021B000016
:1015CC00754C0F754D20754E01E4F54FF550F551E6
:0D15DC00FB7A00794C1214507F010216803A
:10139C001215CCE4F51DAF1D12002EAC06AD07E402
:1013AC00120C5B7B3D7A0A79377840120B2FE51DC6
:1013BC0025E025E02400F8120DE9E51D25E025E0E7
:1013CC002400F8120DD0E51D25E025E02400F812CC
:1013DC000DE9E51D25E025E02400F8120DF53D4C46
:0C13EC00CCCD051DE51DC3940440AB22D0
:100E0E00E4F51DAF1D12002EAC06AD07E4120C5B0F
:100E1E007B3D7A0A79377840120B2FE51D25E025A8
:100E2E00E02400F8120DE9AC11E4120C60E51D256A
:100E3E00E025E02400F8120DDC120A268F108E0F2A
:100E4E008D0E8C0DAC11E4120C60E51D25E025E035
:100E5E002400F8120DDC120A26C004C005C006C01C
:100E6E0007AC08E4120C60D003D002D001D00012FF
:100E7E000A26AB1AAA19A918A8171209358F0C8EB3
:100E8E000B8D0A8C09AC12E4120C60E51D25E025D1
:100E9E00E02400F8120DDC120A26C004C005C006BC
:100EAE00C007AC12E4120C60D003D002D001D00007
:100EBE00120A26C004C005C006C007AC1BAD1CE458
:100ECE00120C5BD003D002D001D000120935E51D03
:100EDE0025E025E02400F8120DDC120A268F168E6E
:100EEE00158D148C13AC12E4120C60AB10AA0FA962
:100EFE000EA80D120A26C004C005C006C007E51DC7
:100F0E0025E025E02400F8120DD0D003D002D00148
:100F1E00D000120931AB16AA15A914A813120A266D
:100F2E00AB10AA0FA90EA80D120935E51D25E02557
:100F3E00E02400F8120DE9AC12E4120C60AB16AA14
:100F4E0015A914A813120A26A804A905AA06AB0708
:100F5E00E4FFFE7D807C3F120931AB0CAA0BA90A7F
:100F6E00A809120A26E51D25E025E02400F8120D39
:0E0F7E00E9051DE51DC394045003020E112267
:10092E00020D00E86480F8E933E83360110460F0EA
:10093E00ED33EC337009E8FCE9FDEAFEEBFF22042F
:10094E0060DED3EB9FEA9EE99DE8C2E78CF0C2F72A
:10095E0095F0400CE8CCF8E9CDF9EACEFAEBCFFBF6
:10096E00120CCB85D0F05804700320D5B3E8047078
:10097E00075002B2D5020D0A92D5EC0460F7E4CC12
:10098E00C0E0C398F8603B94186008400DD0E0FBBF
:10099E00020CE2E4FBFAC9FC8028E830E406E4C964
:1009AE00FBE4CAFCE830E305E4C9CACBFCE8540713
:1009BE006010F8C3E913F9EA13FAEB13FBEC13FC1E
:1009CE00D8F130F52FC3E49CFCEF9BFFEE9AFEEDC1
:1009DE0099FDD0E0FBEF4E4D4C701222DB03020D61
:1009EE0007EC2CFCEF33FFEE33FEED33FDED30E77D
:1009FE00EB020CE2EF2BFFEE3AFEED39FDD0E0FB01
:100A0E0050130BBB0003020D0AED13FDEE13FEEFA8
:080A1E0013FFEC13FC020CE2D3
:100A2600EC4D6011E8497017ED33EC3304600DE4CA
:100A3600FCFFFEFD22E933E8330470F8020D0012D4
:100A46000CCB58046009E4CC2481500628500902D6
:100A56000D0A284003020D07C0E0EB4A7044B98036
:100A660006D0E0FB020CF6EF4E701CBD8008EBFFD3
:100A7600EAFEE9FD80EBE98DF0A4FEE5F0020B0F3E
:100A8600E9CDF9EAFEEBFFEF89F0A4FCE5F0CE89AB
:100A9600F0A42EFFE435F0CD89F0A42DFEE435F068
:100AA6008067EF4E7005BD80D780C3EF8BF0A4AC96
:100AB600F0EE8BF0A42CFCE435F0F8EF8AF0A42CD1
:100AC600E5F038FCE433CB8DF0A42CFCE5F03BF8E4
:100AD600EE8AF0A42CFCE5F038F8E433CF89F0A4D4
:100AE6002CFCE5F038CF3400CE89F0A42FFFE5F0DA
:100AF6003EFEE433C98DF0A42EFEE5F039CD8AF032
:100B0600A42FFFE5F03EFEE43DFD33D0E0FB5007A9
:100B16000BBB000F020D0AEC2CFCEF33FFEE33FE8D
:060B2600ED33FD020CE2BC
:100B2C00020D0AEC5D046005E859047003020D0027
:100B3C00120CCB580460F6EC4860F2EC7004FDFE2D
:100B4C00FF22C860DB2481C85009C398600250069C
:100B5C00020D079850CAF582E9294B4A7005AB8201
:100B6C00020CF675F0007C1A7880C3EF9BEE9AEDC0
:100B7C0099400DC3EF9BFFEE9AFEED99FDE842F014
:100B8C00DC23ACF0D0E0FFD0E0FED0E0FDAB822067
:100B9C00E7101BEB60BAEC2CFCEF33FFEE33FEEDF1
:100BAC0033FD020CE2E803F830E705C0F075F00005
:100BBC00EF2FFFEE33FEED33FD40B830E7C280AAD5
:100BCC0074F8CC6480CCC86480C8F58204604FC3D0
:100BDC00EB9FF5F0EA9E42F0E99D42F0E89C45F06F
:100BEC00603C501DE5825FFFE582D313CB5BCBF4F9
:100BFC002B5582FB50280ABA002409B90020088022
:100C0C001DE5825BFBE582D313CF5FCFF4C3132FBB
:100C1C005582FF50090EBE00050DBD00010CC3EB43
:100C2C009FF5F0EA9E42F0E99D42F0E89C45F060A9
:090C3C0007CC4820E701B3EC22CB
:100C4500ED33EC33600A047003BD8004ECB2E7FCBD
:010C5500227C
:100C560075F020800E75F010800575F0087D007E19
:100C6600007F003392D530D503120DC2EC3340100D
:100C7600EF33FFEE33FEED33FDEC33FCD5F0ED2222
:0E0C8600E5F0247EA2D513CC92E7CDCEFF225E
:100C9400EDD2E7CD33EC3392D524814006E4FFFE58
:100CA400FDFC22FCE4CFCECDCC24E0501174FF80B7
:100CB400EDC3CC13CCCD13CDCE13CECF13CF047054
:070CC400F030D5DE020DC285
:100CCB00E9D2E7C933E833F892D5EDD2E7CD33EC6F
:070CDB0033FC5002B2D522E8
:100CE200EC30E7100FBF000C0EBE00080DBD000473
:100CF2000BEB6014A2D5EB13FCED92E7FD2274FF1F
:100D0200FCFDFEFF22E480F8A2D574FF13FC7D8077
:030D1200E480EF8B
:1012A6000214A3E493A3F8E493A34003F68001F2A7
:1012B60008DFF48029E493A3F85407240CC8C33349
:1012C600C4540F4420C8834004F456800146F6DF18
:1012D600E4800B0102040810204080901605E47E8D
:1012E600019360BCA3FF543F30E509541FFEE4930D
:1012F600A360010ECF54C025E060A840B8E493A3D4
:10130600FAE493A3F8E493A3C8C582C8CAC583CAFE
:10131600F0A3C8C582C8CAC583CADFE9DEE780BEB6
:01161E0000CB
:100D1500BB010689828A83E0225002E722BBFE02DC
:090D2500E32289828A83E493220F
:100D2E00BB010CE58229F582E5833AF583E022507A
:100D3E0006E92582F8E622BBFE06E92582F8E222C4
:0D0D4E00E58229F582E5833AF583E49322DE
:100D5B00EF8DF0A4A8F0CF8CF0A428CE8DF0A42EAC
:020D6B00FE2266
:100D6D00BC000BBE0029EF8DF084FFADF022E4CC6A
:100D7D00F875F008EF2FFFEE33FEEC33FCEE9DEC33
:100D8D00984005FCEE9DFE0FD5F0E9E4CEFD22ED79
:100D9D00F8F5F0EE8420D21CFEADF075F008EF2FC3
:100DAD00FFED33FD4007985006D5F0F222C398FDB4
:050DBD000FD5F0EA2251
:0E0DC200C3E49FFFE49EFEE49DFDE49CFC2242
:0C0DD000E6FC08E6FD08E6FE08E6FF224F
:0D0DDC00E6FB08E6F908E6FA08E6CBF82287
:0C0DE900ECF608EDF608EEF608EFF62236
:100DF500D083D082E493F608740193F608740293C5
:090E0500F608740393F6740473FB
:00000001FF
